11003  67516767 N  West Gravenstein              Way   A41                             8852       8918  01     94931              06060970979246092460          165601656015120415120420002002-122707486+38332557-122707211+38332667
11003  67516767 N  E Gravenstein                 Way   A41                             9852       9918  01     94931              06060970979246092460          165601656015120415120420002002-122707486+38332557-122707211+38332667
11003  67463300 A  Gravenstein                   Hwy N A31       6399       6301       6398       630000009543695436              06060970979268092680          249602496015370515370640104001-122888705+38473512-122888405+38473212
11003  67520049 N  Gravenstein                   Hwy N A31       6299       6251       6298       625000009543695436              06060970979268092680          249602496015370515370640104000-122888405+38473212-122887305+38471912
11003  67463327 A  Gravenstein                   Hwy N A31       6249       6101       6248       610000009543695436              06060970979268092680          249602496015370515370640104009-122887305+38471912-122886405+38470712
11003  67463330 A  Gravensteen                   Hwy N A31       5993       5801       6098       580000009543695436              06060970979268092680                    15370615370620031006-122886405+38470712-122884605+38468712
11003  67463330 A  NoZipCode                     Ave   A31       5993       5801       6098       58000000                        06060970979268092680                    15370615370620031006-122886405+38470712-122884605+38468712
11003  67463330 A  BadZipCode                    Ave   A31       6993       6801       7098       68000000ABCDEABCDE              06060970979268092680                    15370615370620031006-122886405+38470712-122884605+38468712
11003  67463330 A  IncompleteZip                 Ave   A31       6993       6801       7098       68000000    7    7              06060970979268092680                    15370615370620031006-122886405+38470712-122884605+38468712
11103 176079705 AS 400 East                            A41       3431       3473       3384       347400008411584115              49490350359301093010          710707107011170011170050045005-111878968+40696746-111878968+40696146
11103 176085196 AS 400 East                            A41       6271       6365       6266       636000008410784107              49490350359301093010          532305323011230211230230133012-111878268+40634947-111878268+40632847
